:100000000C9463000C948B000C948B000C948B006C
:100010000C948B000C948B000C948B000C94A60910
:100020000C948B000C948B000C948B000C948B0024
:100030000C948B000C948B000C948B000C948B0014
:100040000C9410060C948B000C94C6040C94F804C9
:100050000C948B000C948B000C948B000C948B00F4
:100060000C948B000C948B0000000008000201002F
:100070000003040700000000000000000102040863
:100080001020408001020408102001020408102002
:10009000040404040404040402020202020203032E
:1000A00003030303000000002300260029000000D2
:1000B0000000250028002B0000000000240027007D
:1000C0002A007F03280511241FBECFEFD8E0DEBF32
:1000D000CDBF11E0A0E0B1E0E2E0FDE202C005909A
:1000E0000D92A632B107D9F722E0A6E2B1E001C035
:1000F0001D92A33BB207E1F710E0C3E6D0E004C0D5
:100100002197FE010E947916C136D107C9F70E94D6
:1001100056050C947F160C94000026E040E855E24A
:1001200060E070E08AE391E00E94610461E085E0B4
:100130000E947E0761E086E00E947E0761E089E020
:100140000E947E0761E08AE00E947E0761E08BE00A
:100150000E947E0761E08CE00E947E0761E08DE0F6
:100160000E947E0787E391E00C94170866E271E035
:1001700087E391E00E94C908892B09F4BFC240912E
:10018000290150912A0160912B0170912C012AE0E4
:1001900030E08AE391E00E94FE0580912901909170
:1001A0002A01A0912B01B0912C018E3F9140AF4EBE
:1001B000B04109F0A6C08091020190910301813005
:1001C000910531F4609100017091010185E011C049
:1001D0008230910531F4609100017091010186E057
:1001E00008C08330910569F46091000170910101AC
:1001F00089E00E94F6068091020190910301019628
:100200007CC08430910531F460910001709101014E
:100210008AE0EFCF8530910531F461E08BE00E94F8
:10022000BA0760E008C08630910551F460E08BE0C9
:100230000E94BA0761E08CE00E94BA0760E01FC02C
:100240008730910511F460E012C08830910511F4F7
:1002500061E0EDCF8930910531F460E08BE00E94E0
:10026000BA0761E008C08A309105F9F461E08BE0DB
:100270000E94BA0760E08CE00E94BA0761E08DE05E
:100280000E94BA0780910201909103010196909318
:100290000301809302018091380190913901019608
:1002A00090933901809338012CC00B9709F010C14D
:1002B00061E08BE00E94BA0761E08CE00E94BA071F
:1002C00061E08DE00E94BA078091020190910301E4
:1002D000AC014F5F5F4F50930301409302012091A7
:1002E0003801309139012F5F3F4F3093390120930E
:1002F00038014C30510529F40697909303018093FF
:1003000002018091290190912A01A0912B01B091C5
:100310002C018E389147AF4EB04109F0D9C06091A1
:100320000201709103016230710521F460E070E018
:1003300085E014C06330710521F460E070E086E070
:100340000DC06430710521F460E070E089E006C002
:100350006530710579F460E070E08AE00E94F6068D
:100360008091020190910301019790930301809382
:100370000201AEC06630710519F520913801309147
:100380003901C90167E070E00E94F215019709F098
:100390009FC02130310511F460E01FC061E08BE0A7
:1003A0000E94BA0761E08CE00E94BA0761E08DE02C
:1003B0000E94BA07809102019091030106967BC0CA
:1003C0006730710579F480913801909139010E946C
:1003D000F215029709F07CC061E08BE00E94BA0739
:1003E00060E033C06830710569F480913801909104
:1003F000390167E070E00E94F215039709F068C0C8
:1004000060E01FC06930710569F4809138019091F6
:10041000390167E070E00E94F215049709F058C0B6
:1004200060E039C06A307105A9F48091380190917B
:10043000390167E070E00E94F215059709F048C0A5
:1004400061E08BE00E94BA0761E08CE00E94BA078D
:1004500060E029C06B30710581F480913801909182
:10046000390167E070E00E94F215069789F560E0B7
:100470008BE00E94BA0761E012C06C30710541F553
:10048000809138019091390167E070E00E94F21587
:10049000892BF1F461E08BE00E94BA0760E08CE008
:1004A0000E94BA0761E08DE00E94BA0780910201C4
:1004B0009091030101979093030180930201809131
:1004C0003801909139010197909339018093380157
:1004D0008091290190912A01A0912B01B0912C01CA
:1004E0008E399146AF4EB04109F078C0609100015D
:1004F00070910101CB014997873E910508F0F4C046
:1005000062537109709301016093000180910201AF
:10051000909103018330910529F134F481309105E4
:10052000F9F00297E9F038C08430910521F1059780
:1005300099F585E00E94F606609100017091010135
:1005400086E00E94F606609100017091010189E049
:100550000E94F60660910001709101018AE01AC0C4
:1005600085E018C085E00E94F60660910001709158
:10057000010186E00FC085E00E94F606609100014F
:100580007091010186E00E94F60660910001709171
:10059000010189E00E94F606809102019091030119
:1005A0000597E4F0609100017091010185E00E94DF
:1005B000F606609100017091010186E00E94F60646
:1005C000609100017091010189E00E94F60660913E
:1005D0000001709101018AE00E94F60680912901D4
:1005E00090912A01A0912B01B0912C018E33914C56
:1005F000AF4EB04109F078C06091000170910101E7
:10060000CB0101978E3F910508F06EC06E5C7F4F65
:1006100070930101609300018091020190910301A8
:100620008330910529F134F481309105F9F0029776
:10063000E9F038C08430910521F1059799F585E0FE
:100640000E94F606609100017091010186E00E940F
:10065000F606609100017091010189E00E94F606A2
:1006600060910001709101018AE01AC085E018C014
:1006700085E00E94F606609100017091010186E01C
:100680000FC085E00E94F6066091000170910101A3
:1006900086E00E94F606609100017091010189E0F8
:1006A0000E94F60680910201909103010597E4F003
:1006B000609100017091010185E00E94F606609151
:1006C00000017091010186E00E94F6066091000130
:1006D0007091010189E00E94F6066091000170911D
:1006E00001018AE00E94F60664EF71E080E090E08C
:1006F0000E947F0687E391E00C942E08089563E042
:1007000070E087E391E00C941208FC01918D228D3A
:10071000892F90E0805C9F4F821B91098F739927EE
:100720000895FC01918D828D981731F0828DE80F2C
:10073000F11D858D90E008958FEF9FEF0895FC01E6
:10074000918D828D981761F0828DDF01A80FB11D08
:100750005D968C91928D9F5F9F73928F90E008952C
:100760008FEF9FEF0895FC01538D448D252F30E0CE
:10077000842F90E0821B930B541710F0CF960895AE
:10078000019708958EE195E0892B49F080E090E093
:10079000892B29F00E941E0581110C9400000895F8
:1007A000FC01848DDF01A80FB11DA35ABF4F2C910E
:1007B000848D90E001968F739927848FA689B789DD
:1007C0002C93A089B1898C91837080648C93938DD4
:1007D000848D981306C00288F389E02D80818F7D77
:1007E00080830895EF92FF920F931F93CF93DF932F
:1007F000EC0181E0888F9B8D8C8D981305C0E88972
:10080000F989808185FD26C0F62E0B8D10E00F5FE3
:100810001F4F0F731127E02E8C8DE8120CC00FB6FE
:1008200007FCFACFE889F989808185FFF5CFCE01F1
:100830000E94D003F1CF8B8DFE01E80FF11DE35A2A
:10084000FF4FF0829FB7F8940B8FEA89FB89808174
:1008500080620AC09FB7F894EE89FF896083E889B7
:10086000F98980818370806480839FBF81E090E0FC
:10087000DF91CF911F910F91FF90EF900895CF934B
:10088000DF93EC01888D8823C9F0EA89FB89808198
:1008900085FD05C0A889B9898C9186FD0FC00FB66A
:1008A00007FCF5CF808185FFF2CFA889B9898C91AB
:1008B00085FFEDCFCE010E94D003E7CFDF91CF912E
:1008C0000895CF92DF92EF92FF921F93CF93DF9321
:1008D000EC016A017B01122FE889F98982E08083AB
:1008E0004115514E61057105B1F060E079E08DE38D
:1008F00090E0A70196010E940616DA01C90101974E
:10090000A109B109B695A795979587959C012115E1
:1009100080E13807A8F0E889F989108260E874E876
:100920008EE190E0A70196010E940616DA01C90146
:100930000197A109B109B695A795979587959C014F
:10094000EC85FD853083EE85FF852083188EEC894C
:10095000FD891083EA89FB89808180618083EA892F
:10096000FB89808188608083EA89FB898081806837
:100970008083EA89FB8980818F7D8083DF91CF919D
:100980001F91FF90EF90DF90CF9008951F920F92EC
:100990000FB60F9211242F938F939F93EF93FF9392
:1009A000E0914A01F0914B018081E0915001F0917A
:1009B000510182FD12C09081809153018F5F8F732E
:1009C00020915401821751F0E0915301F0E0E65C70
:1009D000FE4F958F8093530101C08081FF91EF916D
:1009E0009F918F912F910F900FBE0F901F90189590
:1009F0001F920F920FB60F9211242F933F934F9394
:100A00005F936F937F938F939F93AF93BF93EF9376
:100A1000FF938AE391E00E94D003FF91EF91BF9191
:100A2000AF919F918F917F916F915F914F913F9186
:100A30002F910F900FBE0F901F9018958AE391E0B1
:100A40000E94850321E0892B09F420E0822F08957C
:100A5000EAE3F1E01382128288EE93E0A0E0B0E0D6
:100A600084839583A683B78389E091E09183808313
:100A700085EC90E09587848784EC90E09787868763
:100A800080EC90E0918B808B81EC90E0938B828B5B
:100A900082EC90E0958B848B86EC90E0978B868B34
:100AA000118E128E138E148E089508950E94BB0627
:100AB0000E9455050E948D00C2ECD3E00E94B60052
:100AC0002097E1F30E94C203F9CFCF92DF92EF9219
:100AD000FF920F931F93CF93DF936C017A018B01E9
:100AE000C0E0D0E0CE15DF0581F0D8016D918D0119
:100AF000D601ED91FC910190F081E02DC6010995A0
:100B0000892B11F02196EECF7E01C701DF91CF91A5
:100B10001F910F91FF90EF90DF90CF900895611596
:100B2000710579F0FB0101900020E9F73197AF01E1
:100B3000461B570BDC01ED91FC910280F381E02D07
:100B4000099480E090E0089567E171E00C948F05CE
:100B50008F929F92AF92BF92EF92FF920F931F934B
:100B6000CF93DF93CDB7DEB7A1970FB6F894DEBF72
:100B70000FBECDBF7C01FA01CB0119A2223008F4CF
:100B80002AE08E010F5D1F4F822E912CA12CB12CDB
:100B9000BF01A50194010E940616F901CA01015086
:100BA00011096A3010F4605D01C0695CD8016C9372
:100BB000232B242B252B61F7B801C7010E948F0539
:100BC000A1960FB6F894DEBF0FBECDBFDF91CF91D7
:100BD0001F910F91FF90EF90BF90AF909F908F90DB
:100BE00008952115310541F4DC01ED91FC9101904E
:100BF000F081E02D642F09940C94A8050F931F93A6
:100C0000CF93DF93EC010E94F1058C01CE010E948D
:100C1000A405800F911FDF91CF911F910F9108952F
:100C20001F920F920FB60F9211242F933F938F9321
:100C30009F93AF93BF938091D8019091D901A091D8
:100C4000DA01B091DB013091D70123E0230F2D377A
:100C500020F40196A11DB11D05C026E8230F0296C0
:100C6000A11DB11D2093D7018093D8019093D90184
:100C7000A093DA01B093DB018091DC019091DD015A
:100C8000A091DE01B091DF010196A11DB11D8093FD
:100C9000DC019093DD01A093DE01B093DF01BF91F1
:100CA000AF919F918F913F912F910F900FBE0F9019
:100CB0001F9018953FB7F8948091DC019091DD0169
:100CC000A091DE01B091DF0126B5A89B05C02F3FA2
:100CD00019F00196A11DB11D3FBFBA2FA92F982F62
:100CE0008827820F911DA11DB11DBC01CD0142E0DD
:100CF000660F771F881F991F4A95D1F708958F9225
:100D00009F92AF92BF92CF92DF92EF92FF926B01D0
:100D10007C010E945A064B015C01C114D104E1041C
:100D2000F10401F10E94CD150E945A06DC01CB01AD
:100D300088199909AA09BB09883E9340A105B10504
:100D400060F321E0C21AD108E108F10888EE880EAC
:100D500083E0981EA11CB11CC114D104E104F1046C
:100D600019F7DBCFFF90EF90DF90CF90BF90AF905F
:100D70009F908F900895789484B5826084BD84B5E7
:100D8000816084BD85B5826085BD85B5816085BD86
:100D9000EEE6F0E0808181608083E1E8F0E010829F
:100DA000808182608083808181608083E0E8F0E0E0
:100DB000808181608083E1EBF0E0808184608083CA
:100DC000E0EBF0E0808181608083EAE7F0E0808101
:100DD0008460808380818260808380818160808361
:100DE0008081806880831092C10008951F93CF9303
:100DF000DF93182FEB0161E00E947E07209711F42A
:100E000060E004C0CF3FD10539F461E0812FDF916C
:100E1000CF911F910C94BA07E12FF0E0E859FF4FF2
:100E2000E491E330F9F048F4E130B9F0E230A1F5B3
:100E300084B5806284BDC8BD34C0E730E9F0E830D5
:100E400019F1E43049F58091800080628093800040
:100E5000D0938B00C0938A0024C084B5806884BD81
:100E6000C7BD1FC080918000806880938000D093B0
:100E70008900C093880015C08091B000806880937D
:100E8000B000C093B3000DC08091B0008062809329
:100E9000B000C093B40005C0C038D1050CF0B5CF88
:100EA000AFCFDF91CF911F910895833081F028F467
:100EB000813099F08230A1F008958730A9F0883010
:100EC000B9F08430D1F4809180008F7D03C080918F
:100ED00080008F7780938000089584B58F7702C05B
:100EE00084B58F7D84BD08958091B0008F7703C055
:100EF0008091B0008F7D8093B0000895CF93DF93F1
:100F000090E0FC01E458FF4F2491FC01E057FF4FB3
:100F10008491882361F190E0880F991FFC01E854C7
:100F2000FF4FC591D491FC01E255FF4FA591B491BB
:100F3000611109C09FB7F894888120958223888326
:100F4000EC912E230BC0623061F49FB7F894888136
:100F5000322F309583238883EC912E2B2C939FBFC7
:100F600006C08FB7F894E8812E2B28838FBFDF91BE
:100F7000CF9108951F93CF93DF93282F30E0F9018D
:100F8000E859FF4F8491F901E458FF4FD491F901DA
:100F9000E057FF4FC491CC23C1F0162F81110E945E
:100FA0005507EC2FF0E0EE0FFF1FE255FF4FA59124
:100FB000B4919FB7F894111104C08C91D095D823A7
:100FC00002C0EC91DE2BDC939FBFDF91CF911F918C
:100FD0000895CF93DF93282F30E0F901E859FF4FB0
:100FE0008491F901E458FF4FD491F901E057FF4F84
:100FF000C491CC2391F081110E945507EC2FF0E0B1
:10100000EE0FFF1FEC55FF4FA591B491EC91ED232E
:1010100081E090E021F480E002C080E090E0DF9188
:10102000CF910895E0EEF1E0618313820895F89482
:1010300082E08093B0008093B10094E69093B30077
:101040001092B200809370007894E0EEF1E010828C
:1010500015821482818160E00C947E07E0EEF1E05D
:1010600010821582148208958AE0849FF001859F82
:10107000F00D11249B0193E0220F331F9A95E1F7A5
:10108000E217F30780F0869F9001879F300D1124AF
:1010900083E0440F551F8A95E1F72417350730F098
:1010A00081E090E0089580E090E0089582E090E093
:1010B00008956F927F928F929F92AF92BF92CF923C
:1010C000DF92EF92FF920F931F93CF93DF93FB0179
:1010D000C584D684F6E0CF16D10408F448C0EB01ED
:1010E0003C01E12CF12C02E010E035EC832E3DE9CF
:1010F000932E3CE1A32E31E8B32E0F5F1F4F22E069
:10110000E20EF11CC016D10619F18B859C85F80101
:10111000EE0FFF1FE80FF91F40815181FC01EE0D1A
:10112000FF1D60817181C3010E943408FC01A5018B
:10113000940163E971E080E091E00E94CE154F01D7
:10114000FF0FAA08BB0886269726A826B926D5CF62
:101150008B829C82AD82BE8280E290E09A878987F2
:101160008FEF888361E070E080E090E003C060E092
:1011700070E0CB01DF91CF911F910F91FF90EF9025
:10118000DF90CF90BF90AF909F908F907F906F90A7
:1011900008950F931F93CF93DF93EB0128EE31E077
:1011A0003C872B872091E4013091E5013E872D8714
:1011B0002091B20230E0388B2F872091E00123305C
:1011C00009F071C08C010E94F10D882319F081E0B3
:1011D00090E06BC0BE01C8010E9494128111F7CF4C
:1011E000BE01C8010E94FD138111F1CFBE01C801EB
:1011F0000E9489148111EBCFBE01C8010E94E91140
:101200008111E5CFBE01C8010E94640D8111DFCFBD
:10121000BE01C8010E94A10F8111D9CFBE01C80132
:101220000E9449108111D3CFBE01C8010E94940EC3
:101230008111CDCFBE01C8010E943C0C8111C7CFE6
:10124000BE01C8010E94800B8111C1CFBE01C8013F
:101250000E9446118111BBCFBE01C8010E942A1510
:101260008111B5CFBE01C8010E94720A8111AFCFB2
:10127000BE01C8010E94040B8111A9CFBE01C801A3
:101280000E94C90C8111A3CFBE01C8010E94590858
:10129000672B682B692B09F09ACF1092E00110920E
:1012A000E5011092E40180E090E0DF91CF911F9181
:1012B0000F9108959C01FB01CB0163E470E00E9453
:1012C000F215261737075CF0CF0168E270E00E9444
:1012D000F2156F5F7F4F81E0621773070CF480E0B7
:1012E00090E00895FC019B012C593F4FC90163E434
:1012F00070E00E94F215E617F7075CF0C90168E29A
:1013000070E00E94F2156F5F7F4F81E06E177F07DC
:101310000CF480E090E00895FC019B012456310913
:10132000C90163E470E00E94F215E617F7075CF06C
:10133000C90168E270E00E94F2156F5F7F4F81E0A3
:101340006E177F070CF480E090E008951F920F92D3
:101350000FB60F9211242F933F934F935F936F9388
:101360007F938F939F93AF93BF93EF93FF9380915E
:10137000E1010E94E9072091E6013091E7012F5F2A
:101380003F4F3093E7012093E6012091E401309133
:10139000E5012536310518F094E09093E001909135
:1013A000E001911111C0811171C02091E6013091CD
:1013B000E7012436310508F45AC01092B2021092A7
:1013C000E5011092E40129C09091E0019130F9F417
:1013D000813009F05BC02091E4013091E501A90161
:1013E0004F5F5F4F5093E5014093E4014091E60168
:1013F0005091E701220F331FF901E851FE4F51834D
:1014000040831092E7011092E60192E03DC0909176
:10141000E001923031F581111CC02091E40130913E
:10142000E501A9014F5F5F4F5093E5014093E4014F
:101430004091E6015091E701220F331FF901E85175
:10144000FE4F518340831092E7011092E60191E034
:101450001BC02091E6013091E70125363105B0F03F
:1014600012C09091E001933039F481110FC01092B5
:10147000E7011092E6010AC09091E001943031F446
:1014800091E09093B20293E09093E0019091E30198
:101490009923B9F081110AC08091E201882321F0DB
:1014A0008091E20161E009C02D9A0BC08091E201B8
:1014B000882331F08091E20160E00E94BA0701C008
:1014C0002D98FF91EF91BF91AF919F918F917F9157
:1014D0006F915F914F913F912F910F900FBE0F90A1
:1014E0001F901895AF92BF92CF92DF92EF92FF922A
:1014F0000F931F93CF93DF938091E4019091E501C7
:101500008835910510F480E074C0EB01EB85FC8513
:101510008281938160E672E20E947209892B99F3BD
:10152000EB85FC858481958164E971E10E948C09D9
:10153000892B49F35DE1C52ED12CE12CF12C0EE174
:1015400010E08091E4019091E5010497C816D90656
:10155000D0F5EB85FC85C601880F991FE80FF91FB0
:101560008081918164EF71E00E947209892B59F2A8
:101570005801AA0CBB1CEB85FC85EA0DFB1D808184
:10158000918168E572E00E948C09892B39F0C701CE
:10159000880F991F7C016894E0F80FC08B859C85AB
:1015A000FC01EA0DFB1D8081918164EA76E00E94D6
:1015B0008C09892B49F0EE0CFF1C82E0C80ED11C6F
:1015C0000E5F1F4FBECF860101501109169507957A
:1015D0001A8709870A32110508F495CFC701FF0C55
:1015E000AA0BBB0B8B839C83AD83BE8389E088836E
:1015F00081E0DF91CF911F910F91FF90EF90DF90ED
:10160000CF90BF90AF900895AF92BF92CF92DF92EC
:10161000EF92FF920F931F93CF93DF938091E4019A
:101620009091E501809711F080E05FC0EB01EB85C0
:10163000FC85828193816CE271E00E947209892BA2
:1016400099F3EB85FC85848195816EEE72E00E94B2
:101650008C09892B49F306E010E0C12CD12C7601CE
:10166000EB85FC85E00FF11F808191816CE271E0D8
:101670000E947209892BC1F2580182E0A80EB11CA8
:10168000EB85FC85EA0DFB1D8081918168E077E0A8
:101690000E948C09892B39F0CC0CDD1CEE1CFF1C40
:1016A0006894C0F812C08B859C85FC01EA0DFB1D77
:1016B000808191816EEE72E00E948C09892B09F481
:1016C000B3CFCC0CDD1CEE1CFF1C0C5F1F4F0E3388
:1016D000110531F68EE090E09A878987CB82DC8213
:1016E000ED82FE8280E1888381E0DF91CF911F91BE
:1016F0000F91FF90EF90DF90CF90BF90AF90089543
:10170000AF92BF92CF92DF92EF92FF920F931F930F
:10171000CF93DF93EB018091E4019091E5018297F3
:1017200059F5EB85FC858281938168E572E00E9422
:101730007209892B09F1E091E401F091E501E15092
:10174000F048EE0FFF1F8B859C85E80FF91F808105
:10175000918168E572E00E947209892B69F01A860E
:1017600019868FEF9FEFDC018B839C83AD83BE8353
:1017700086E0888381E075C0EB85FC85828193815A
:1017800060E47FE10E947209892B31F08091E401CD
:101790009091E501819710F480E063C0EB85FC85B2
:1017A0008481958160EA7FE00E948C09892BA1F3F6
:1017B00038E0A32EB12C03E010E0C12CD12C76012F
:1017C000EB85FC85C801880F991FE80FF91F808100
:1017D000918168E572E00E947209892BE9F2EB853C
:1017E000FC85EA0DFB1D8081918160E476E00E941A
:1017F0008C09892B39F0CC0CDD1CEE1CFF1C689485
:10180000C0F811C0EB85FC85EA0DFB1D808191813C
:1018100066E272E00E948C09892B09F4BDCFCC0CE2
:10182000DD1CEE1CFF1C0E5F1F4F84E0A80EB11CD8
:101830000332110529F6EB85FC85EA5BFF4F8081B9
:10184000918168E572E00E947209892B09F4A4CFA6
:1018500080E190E09A878987CB82DC82ED82FE82EC
:1018600087CFDF91CF911F910F91FF90EF90DF9085
:10187000CF90BF90AF900895AF92BF92CF92DF927A
:10188000EF92FF920F931F93CF93DF938091E40128
:101890009091E501C99710F480E070C0EB01EB85F1
:1018A000FC858281938160E47FE10E947209892B2B
:1018B00099F3EB85FC858481958160EA7FE00E9445
:1018C0008C09892B49F338E0A32EB12C03E010E0FA
:1018D000C12CD12C7601EB85FC85C801880F991F9E
:1018E000E80FF91F8081918168E572E00E9472091A
:1018F000892B91F2EB85FC85EA0DFB1D808191819E
:1019000060E476E00E948C09892B39F0CC0CDD1C58
:10191000EE1CFF1C6894C0F811C0EB85FC85EA0D35
:10192000FB1D8081918166E272E00E948C09892B07
:1019300009F4B2CFCC0CDD1CEE1CFF1C0E5F1F4F58
:1019400084E0A80EB11C0B33110529F6EB85FC854C
:10195000EA58FF4F8081918168E572E00E94720928
:10196000892B09F499CF8CE190E09A878987CB8203
:10197000DC82ED82FE828AE0888381E0DF91CF9174
:101980001F910F91FF90EF90DF90CF90BF90AF909D
:101990000895AF92BF92CF92DF92EF92FF920F9392
:1019A0001F93CF93DF93CDB7DEB728970FB6F89488
:1019B000DEBF0FBECDBF8091E4019091E50184367A
:1019C000910510F480E06FC07B0119821A821B829E
:1019D0001C821D821E821F82188652E0A52EB12C09
:1019E000CC24C394D12C8091E4019091E501A816F8
:1019F000B90608F044C0D7011B96ED91FC911C97E5
:101A0000D601AA0FBB1FAE0FBF1F2D913C91B2E0B4
:101A1000CB0ED11CC501880F991FE80FF91F01904B
:101A2000F081E02DCF01B9010E94DE158B016EE738
:101A300074E0C9018E0F9F1F0E947209892B11F259
:101A400029813A814B815C816D817E818F8198856E
:101A50000230110520F001E00E94421604C001E0AE
:101A60000E944216216029833A834B835C836D83F5
:101A70007E838F83988782E0A80EB11CB4CF83E168
:101A8000F7018083D694C794D286C1868B819C81CE
:101A9000AD81BE8183839483A583B68389819A8136
:101AA0009087878381E028960FB6F894DEBF0FBE3B
:101AB000CDBFDF91CF911F910F91FF90EF90DF90FD
:101AC000CF90BF90AF9008958F929F92AF92BF92A8
:101AD000CF92DF92EF92FF920F931F93CF93DF93FA
:101AE0008091E4019091E501829708F464C0EB01D4
:101AF000EB85FC85828193816EE571E00E9472091D
:101B0000892B09F458C002E010E0C12CD12C7601D9
:101B100063E0A62EB12C8091E4019091E501A81616
:101B2000B906F0F54801880C991CEB85FC85E80D99
:101B3000F91D808191816EE977E00E947209892BFD
:101B400039F0CC0CDD1CEE1CFF1C6894C0F811C0F1
:101B50008B859C85FC01E80DF91D808191816EEEDD
:101B600072E00E947209892B31F1CC0CDD1CEE1C55
:101B7000FF1CEB85FC85C501880F991FE80FF91F35
:101B8000808191816EE571E00E948C0995012E5F44
:101B90003F4F892B21F00E5F1F4F5901BCCF8501AC
:101BA00001501109169507951A870987003111050B
:101BB00020F41A86198680E007C0CB82DC82ED8291
:101BC000FE828CE0888381E0DF91CF911F910F919D
:101BD000FF90EF90DF90CF90BF90AF909F908F904D
:101BE0000895AF92BF92CF92DF92EF92FF920F9340
:101BF0001F93CF93DF93EB01EB85FC85828193816B
:101C000068E273E20E947209892B11F480E081C0BE
:101C10008091E4019091E501049709F5EB85FC853D
:101C2000848195816AEC78E00E948C09892BB9F057
:101C3000EB85FC858681978160E372E00E947209E2
:101C4000892B69F01A8619868FEF9FEFDC018B8351
:101C50009C83AD83BE8383E0888381E05AC08091FA
:101C6000E4019091E5018434910580F2EB85FC85D7
:101C70008481958164E971E10E948C09892B31F29C
:101C800006E010E0C12CD12C7601EB85FC85E00F3D
:101C9000F11F8081918160E372E00E947209892BBB
:101CA00009F4B4CF580182E0A80EB11CEB85FC8585
:101CB000EA0DFB1D808191816AE976E00E948C0922
:101CC000892B39F0CC0CDD1CEE1CFF1C6894C0F88D
:101CD00012C08B859C85FC01EA0DFB1D80819181E2
:101CE00060E372E00E948C09892B09F48FCFCC0C41
:101CF000DD1CEE1CFF1C0C5F1F4F0638110529F67A
:101D000080E290E09A878987CB82DC82ED82FE8236
:101D1000A2CFDF91CF911F910F91FF90EF90DF90B5
:101D2000CF90BF90AF9008956F927F928F929F92C5
:101D3000AF92BF92CF92DF92EF92FF920F931F93D9
:101D4000CF93DF93EB01EB85FC85828193816EEA73
:101D50007DE00E947209892B11F480E06CC0EB8554
:101D6000FC858481958166ED76E00E947209892B5D
:101D7000A1F386E0A82EB12CC12CD12CE12CF12CA2
:101D800000E010E0612C712CEB85FC85EA0DFB1D59
:101D90008081918166EF71E00E947209892BE9F2DE
:101DA000450182E0880E911CEB85FC85E80DF91D4C
:101DB000808191816CED74E00E948C09892B49F03F
:101DC0009601A701B801C30101E00E9442162160FB
:101DD00015C08B859C85FC01E80DF91D80819181E2
:101DE00060E971E00E948C09892B09F4B6CF960155
:101DF000A701B801C30101E00E94421669017A01FE
:101E00008B013C0184E0A80EB11C86ECA816B1043D
:101E100009F0BACF2B833C834D835E83C30100E27C
:101E20000E945D1629833A8385E0888380E390E0F1
:101E30009A87898781E0DF91CF911F910F91FF9061
:101E4000EF90DF90CF90BF90AF909F908F907F905A
:101E50006F9008958F929F92AF92BF92CF92DF9230
:101E6000EF92FF920F931F93CF93DF93DA018D913F
:101E70009C91DB011D96ED91FC911E978E179F079B
:101E800008F04DC0FC01EE0FFF1F1B966D917C9179
:101E90001C97E60FF71FA080B180817099276C0115
:101EA000B1E0CB26892B19F48CE99FEF02C084E6C0
:101EB00090E07901EA014C01800E911EB401C50148
:101EC0000E945A09892B99F4800E911EB401C50114
:101ED0000E945A09892B71F4B801680D791DC5015A
:101EE0000E945A09892BF1F023E030E005C021E07F
:101EF00030E002C022E030E0F7018081918101965C
:101F0000821793071CF49183808307C0118210828B
:101F100088819981019699838883C60105C081E0F3
:101F200090E002C08FEF9FEFDF91CF911F910F9153
:101F3000FF90EF90DF90CF90BF90AF909F908F90E9
:101F400008954F925F926F927F928F929F92AF927D
:101F5000BF92CF92DF92EF92FF920F931F93CF9396
:101F6000DF9300D000D0CDB7DEB71C821B8221E00A
:101F700030E03A8329832091E4013091E5012D304E
:101F8000310510F480E070C07B016C0109E713E0BB
:101F90009E012D5F3F4FAE014F5F5F4F0E942A0FA2
:101FA000892B81F79E012D5F3F4FAE014F5F5F4F41
:101FB000B701C6010E942A0F019721F79E012D5FEC
:101FC0003F4FAE014F5F5F4FB701C6010E942A0F1E
:101FD000892BC1F6412C512C3201A12CB12C20911E
:101FE000E4013091E50189819A818217930798F580
:101FF00009E713E09E012D5F3F4FAE014F5F5F4F3A
:10200000B701C6010E942A0F4C019E012D5F3F4F70
:10201000AE014F5F5F4FB701C6010E942A0F21E05A
:102020008216910451F4892B09F0ACCF440C551C55
:10203000661C771C689440F80AC0892809F0A2CF72
:10204000019709F09FCF440C551C661C771C8FEF3D
:10205000A81AB80AC4CFF701B286A1864382548277
:102060006582768281E080830F900F900F900F90B1
:10207000DF91CF911F910F91FF90EF90DF90CF9064
:10208000BF90AF909F908F907F906F905F904F9098
:1020900008952F923F924F925F926F927F928F920C
:1020A0009F92AF92BF92CF92DF92EF92FF920F93E7
:1020B0001F93CF93DF9300D000D0CDB7DEB71C8243
:1020C0001B8221E030E03A832983DB011D962D91AC
:1020D0003C911E97232B11F480E0C1C07B016C0161
:1020E000DB011B96ED91FC911C97828193816AE63E
:1020F0007AE00E947209892B79F389819A8101968D
:102100009A838983880F991FD7011B96ED91FC91C3
:102110001C97E80FF91F8081918169E773E00E94A5
:102120008C09892BC9F289819A8101969A838983C6
:102130000CEB11E09E012D5F3F4FAE014F5F5F4FF3
:10214000B701C6010E942A0F892B31F69E012D5F2F
:102150003F4FAE014F5F5F4FB701C6010E942A0F8C
:10216000019709F0B9CF212C312C2101A12CB12CE0
:10217000F7012585368589819A818217930708F0B2
:1021800064C00CEB11E09E012D5F3F4FAE014F5F2D
:102190005F4FB701C6010E942A0F3C01F3E0AF1662
:1021A000B10491F00CEB11E09E012D5F3F4FAE01A9
:1021B0004F5F5F4FB701C6010E942A0F4C0183E0B9
:1021C000A816B10409F510C00CEB11E09E012D5FBB
:1021D0003F4FAE014F5F5F4FB701C6010E942A0F0C
:1021E00068167906F9F278CF0CEB11E09E012D5FAD
:1021F0003F4FAE014F5F5F4FB701C6010E942A0FEC
:102200008816990609F068CF6114710479F48A94EC
:10221000892809F061CFD201C101880F991FAA1F37
:10222000BB1F1C012D01689420F80BC06A9467281D
:1022300009F052CF892809F04FCF220C331C441CDF
:10224000551CEFEFAE1ABE0A93CFB286A186F701F6
:10225000238234824582568282E0808381E00F901F
:102260000F900F900F90DF91CF911F910F91FF90E2
:10227000EF90DF90CF90BF90AF909F908F907F9026
:102280006F905F904F903F902F900895AF92BF92C4
:10229000CF92DF92EF92FF920F931F93CF93DF9332
:1022A000EB01EB85FC858281938164E971E10E94F9
:1022B0007209892B11F480E081C08091E401909132
:1022C000E501049709F5EB85FC85848195816AEC2D
:1022D00078E00E948C09892BB9F0EB85FC8586811A
:1022E000978160E372E00E947209892B69F01A8677
:1022F00019868FEF9FEFDC018B839C83AD83BE83B8
:1023000087E0888381E05AC08091E4019091E501E3
:102310008434910580F2EB85FC858481958164E9A4
:1023200071E10E948C09892B31F206E010E0C12C8A
:10233000D12C7601EB85FC85E00FF11F8081918126
:1023400060E372E00E947209892B09F4B4CF58014E
:1023500082E0A80EB11CEB85FC85EA0DFB1D808197
:10236000918160E476E00E948C09892B39F0CC0CD5
:10237000DD1CEE1CFF1C6894C0F812C08B859C8588
:10238000FC01EA0DFB1D8081918160E372E00E94F7
:102390008C09892B09F48FCFCC0CDD1CEE1CFF1CA3
:1023A0000C5F1F4F0638110529F680E290E09A87EE
:1023B0008987CB82DC82ED82FE82A2CFDF91CF9132
:1023C0001F910F91FF90EF90DF90CF90BF90AF9053
:1023D00008958F929F92AF92BF92CF92DF92EF9229
:1023E000FF920F931F93CF93DF93EB018091E40152
:1023F0009091E5014A9708F481C0EB85FC85208126
:10240000318142E3429FC001439F900D11248032ED
:10241000934050F41A8619868FEF9FEFDC018B836F
:102420009C83AD83BE8370C0828193816CEA7DE022
:102430000E947209892B09F461C0EB85FC858481B7
:1024400095816CEA7DE00E947209892B09F456C0DF
:1024500054E0A52EB12C03E010E0C12CD12C760164
:102460008091E4019091E501A816B906E0F5EB85AD
:10247000FC85C801880F991FE80FF91F80819181A1
:1024800066EB73E00E948C09892B69F14501880C89
:10249000991CEB85FC85E80DF91D8081918160E632
:1024A00079E00E947209892B39F0CC0CDD1CEE1CFE
:1024B000FF1C6894C0F811C08B859C85FC01E80D59
:1024C000F91D808191816CEB72E00E947209892B69
:1024D000A9F0CC0CDD1CEE1CFF1C0E5F1F4F82E030
:1024E000A80EB11CBDCF01501109169507951A878A
:1024F00009870C30110520F41A86198680E007C080
:10250000CB82DC82ED82FE828BE0888381E0DF91EA
:10251000CF911F910F91FF90EF90DF90CF90BF90E0
:10252000AF909F908F9008952F923F924F925F921D
:102530006F927F928F929F92AF92BF92CF92DF92D3
:10254000EF92FF920F931F93CF93DF93CDB7DEB738
:102550002A970FB6F894DEBF0FBECDBF8091E4017D
:102560009091E501809749F08091E4019091E50117
:102570008036910539F080E027C121E030E03E83CC
:102580002D8304C083E090E09E838D837A876987E2
:10259000DB011B96ED91FC911C978281938166E98A
:1025A00070E00E947209892B31F3A985BA851B96C8
:1025B000ED91FC911C97848195816DE077E00E94FC
:1025C0008C09892B71F4A985BA851B96ED91FC9134
:1025D0001C97848195816BE173E00E948C09892BA3
:1025E00051F21C821B8201E010E0812C912C5401DD
:1025F0006801CC0CDD1CE12CF12C412C512C32015A
:10260000A985BA851B96ED91FC911C97EC0DFD1DDB
:102610008081918166E970E00E947209892B09F43A
:10262000AACF1601B2E02B0E311CA985BA851B96E4
:10263000ED91FC911C97E20DF31D808191816DE07D
:1026400077E00E948C09892B89F081E090E00E2CC4
:1026500002C0880F991F0A94E2F7092E000CAA0BFA
:10266000BB0B480E591E6A1E7B1E10C0E985FA85F9
:1026700083859485FC01E20DF31D808191816BE1DE
:1026800073E00E948C09892B09F475CF0E5F1F4FF0
:10269000FFEFEF1AFF0A24E0C20ED11C35E0E3166B
:1026A000F10409F0ADCF1801220C331C1A821982F3
:1026B000C12CD12C7601A985BA851B96ED91FC9190
:1026C0001C97E20DF31D8081918166E970E00E9404
:1026D0007209892B09F44FCFF1013296F887EF8305
:1026E000A985BA851B96ED91FC911C972F813885A1
:1026F000E20FF31F808191816DE077E00E948C09E9
:10270000892B89F081E090E0098002C0880F991F31
:102710000A94E2F7092E000CAA0BBB0BC80ED91EB7
:10272000EA1EFB1E13C0A985BA851B96ED91FC918C
:102730001C972F813885E20FF31F808191816BE117
:1027400073E00E948C09892B09F415CFC801029609
:10275000A981BA811196BA83A983B4E02B0E311CEA
:10276000E981FA81389711F08C01A5CF085F1F4FDE
:1027700081149104A104B10431F0C814D904EA040D
:10278000FB0409F0F8CE4601570180942B813C816F
:102790002F5F3F4F3C832B838D819E818217930750
:1027A00009F026CF8FE090E0A985BA851A969C9310
:1027B0008E931997FD01C382D482E582F6825282FC
:1027C00041828EE0808381E02A960FB6F894DEBFC6
:1027D0000FBECDBFDF91CF911F910F91FF90EF9072
:1027E000DF90CF90BF90AF909F908F907F906F9031
:1027F0005F904F903F902F900895EF92FF920F932C
:102800001F93CF93DF938091E4019091E50180972E
:10281000A8F1EB01EB85FC8586AD97AD66E970E02C
:102820000E947209892B51F1EB85FC8584AD95AD31
:102830006CEB72E00E948C09892B01F1EB85FC8521
:1028400020813181A2E3B0E00E9428166135734CEB
:1028500081059105ACF48091040181110DC01A86A7
:1028600019868FEF9FEFDC018B839C83AD83BE8342
:102870008EE0888381E046C01092040180E042C06F
:1028800054E3E52EF12C00E010E0EB85FC85EE0D25
:10289000FF1D8081918166ED76E00E948C09892B75
:1028A00021F0000F111F01600EC0EB85FC85EE0DBD
:1028B000FF1D808191816CEB72E00E948C09892B55
:1028C000E9F2000F111F84E0E81AF108F1F68DE03B
:1028D00090E09A878987C8018072992701979A8327
:1028E0008983C80125E0969587952A95E1F7A0E0B0
:1028F000B0E08B839C83AD83BE838FE0888381E0CF
:1029000080930401DF91CF911F910F91FF90EF9081
:1029100008958F929F92AF92BF92CF92DF92EF92E3
:10292000FF920F931F93CF93DF93EB018091E4010C
:102930009091E5014A9708F477C0EB85FC852081EA
:10294000318142E3429FC001439F900D1124843F97
:10295000914058F41A8619868FEF9FEFDC018B8324
:102960009C83AD83BE838BE066C08281938160E6E9
:1029700079E00E947209892B09F456C053E0A52E14
:10298000B12C02E010E0C12CD12C76018091E40141
:102990009091E501A816B906E0F5EB85FC85C80124
:1029A000880F991FE80FF91F8081918168E572E017
:1029B0000E948C09892B69F14501880C991CEB85D3
:1029C000FC85E80DF91D8081918160EB74E00E9427
:1029D0007209892B39F0CC0CDD1CEE1CFF1C6894AD
:1029E000C0F811C08B859C85FC01E80DF91D808124
:1029F000918168E572E00E947209892BA9F0CC0CE4
:102A0000DD1CEE1CFF1C0E5F1F4F82E0A80EB11CE8
:102A1000BDCF01501109169507951A8709870C300B
:102A2000110520F41A86198680E007C0CB82DC826B
:102A3000ED82FE8284E0888381E0DF91CF911F9157
:102A40000F91FF90EF90DF90CF90BF90AF909F904D
:102A50008F900895AF92BF92CF92DF92EF92FF9244
:102A60000F931F93CF93DF938091E4019091E50141
:102A70008634910510F480E085C0EB01EB85FC8580
:102A8000828193816EEE72E00E947209892B99F324
:102A9000EB85FC85848195816EEE72E00E948C0945
:102AA000892B49F3EB85FC858681978162E27BE087
:102AB0000E947209892BF9F2EB85FC85808591854E
:102AC00062E27BE00E948C09892BA9F23CE0A32EF4
:102AD000B12C05E010E0C12CD12C7601EB85FC85F2
:102AE000C801880F991FE80FF91F808191816EEE50
:102AF00072E00E947209892B09F4BDCFEB85FC8539
:102B0000EA0DFB1D8081918166E678E00E948C09C8
:102B1000892B39F0CC0CDD1CEE1CFF1C6894C0F82E
:102B200011C0EB85FC85EA0DFB1D808191816EEE65
:102B300072E00E948C09892B09F49DCFCC0CDD1C1E
:102B4000EE1CFF1C0E5F1F4F84E0A80EB11C053465
:102B5000110521F6EB85FC85E657FF4F80819181B9
:102B60006EEE72E00E947209892B09F484CF80E234
:102B700090E09A878987CB82DC82ED82FE8288E0B2
:102B8000888381E0DF91CF911F910F91FF90EF90AB
:102B9000DF90CF90BF90AF9008950895DB018F93A1
:102BA0009F930E943716BF91AF91A29F800D911DF8
:102BB000A39F900DB29F900D11240895AA1BBB1BDB
:102BC00051E107C0AA1FBB1FA617B70710F0A61B2D
:102BD000B70B881F991F5A95A9F780959095BC014E
:102BE000CD01089597FB072E16F4009407D077FDCA
:102BF00009D00E94DE1507FC05D03EF49095819522
:102C00009F4F0895709561957F4F0895A1E21A2E08
:102C1000AA1BBB1BFD010DC0AA1FBB1FEE1FFF1F80
:102C2000A217B307E407F50720F0A21BB30BE40BD0
:102C3000F50B661F771F881F991F1A9469F7609517
:102C40007095809590959B01AC01BD01CF010895D1
:102C5000A29FB001B39FC001A39F700D811D1124DD
:102C6000911DB29F700D811D1124911D08950E9428
:102C70002816A59F900DB49F900DA49F800D911DC7
:102C8000112408950F93083090F0982F872F762FF6
:102C9000652F542F432F322F22270850F4CF220FB5
:102CA000331F441F551F661F771F881F991F0A95E2
:102CB000B2F70F91089597FB10F8169400080F9340
:102CC000083098F00850232F342F452F562F672FA8
:102CD000782F892F902DF4CF059497958795779528
:102CE000679557954795379527950A95AAF70F91B8
:102CF0000895EE0FFF1F0590F491E02D0994F894CC
:022D0000FFCF03
:102D0200FF0001000100000000F2036505B3033F6C
:102D12000485039F0391030D0A006E616E00696EC4
:062D220066006F766600FA
:00000001FF
